:020000040000FA
:1000000060020020F1020000F9020000FB02000083
:10001000FD020000FF0200000103000000000000DC
:1000200000000000000000000000000003030000CA
:1000300005030000000000000703000009030000A2
:100040000B0300000D0300000F030000110300006C
:10005000130300001503000017030000190300003C
:100060001B0300001D0300001F030000210300000C
:1000700023030000250300002703000029030000DC
:100080002B0300002D0300002F03000031030000AC
:10009000330300003503000037030000390300007C
:1000A0003B0300003D0300003F030000410300004C
:1000B000430300004503000047030000490300001C
:1000C0004B0300004D0300004F03000051030000EC
:1000D00053030000550300005703000059030000BC
:1000E0005B0300005D030000000000005F030000F0
:1000F0006103000063030000650300006703000064
:10010000690300006B0300006D0300006F03000033
:1001100000000000000000007103000073030000F5
:100120007503000077030000790300007B030000E3
:100130007D0300007F0300008103000083030000B3
:1001400000000000000000000000000000000000AF
:100150008503000087030000890300008B03000073
:10016000000000000000000000000000000000008F
:10017000000000000000000000000000000000007F
:10018000000000000000000000000000000000006F
:10019000000000000000000000000000000000005F
:1001A000000000000000000000000000000000004F
:1001B0008D0300008F0300009103000093030000F3
:1001C0009503000097030000990300009B030000C3
:1001D0009D0300009F030000A1030000A303000093
:1001E000A5030000A7030000A90300000000000011
:1001F00000000000AB030000AD030000AF030000EF
:10020000B1030000B3030000000000000000000084
:10021000B5030000B7030000B9030000BB030000F2
:10022000BD030000BF030000C1030000C3030000C2
:10023000C5030000C7030000C9030000CB03000092
:10024000CD030000CF030000D1030000D303000062
:10025000D5030000D7030000D9030000DB03000032
:10026000DD030000DF030000E103000000F002F8FE
:1002700000F02EF80AA090E8000C82448344AAF112
:100280000107DA4501D100F023F8AFF2090EBAE810
:100290000F0013F0010F18BFFB1A43F001031847BA
:1002A000E4050000F40500000023002400250026DA
:1002B000103A28BF78C1FBD8520728BF30C148BFC9
:1002C0000B6070471FB500F0D7FA1FBD10B510BD09
:1002D00000F09BF81146FFF7F5FF00F0A3FA00F0DD
:1002E000B9F803B4FFF7F2FF03BC00F0C1F8000057
:1002F0003F4880473F480047FEE7FEE7FEE7FEE74E
:10030000FEE7FEE7FEE7FEE7FEE7FEE7FEE7FEE7C5
:10031000FEE7FEE7FEE7FEE7FEE7FEE7FEE7FEE7B5
:10032000FEE7FEE7FEE7FEE7FEE7FEE7FEE7FEE7A5
:10033000FEE7FEE7FEE7FEE7FEE7FEE7FEE7FEE795
:10034000FEE7FEE7FEE7FEE7FEE7FEE7FEE7FEE785
:10035000FEE7FEE7FEE7FEE7FEE7FEE7FEE7FEE775
:10036000FEE7FEE7FEE7FEE7FEE7FEE7FEE7FEE765
:10037000FEE7FEE7FEE7FEE7FEE7FEE7FEE7FEE755
:10038000FEE7FEE7FEE7FEE7FEE7FEE7FEE7FEE745
:10039000FEE7FEE7FEE7FEE7FEE7FEE7FEE7FEE735
:1003A000FEE7FEE7FEE7FEE7FEE7FEE7FEE7FEE725
:1003B000FEE7FEE7FEE7FEE7FEE7FEE7FEE7FEE715
:1003C000FEE7FEE7FEE7FEE7FEE7FEE7FEE7FEE705
:1003D000FEE7FEE7FEE7FEE7FEE7FEE7FEE7FEE7F5
:1003E000FEE7000004480549034A054B704700003A
:1003F000110700006D020000600000206002002074
:1004000060000020704770477047754600F02CF878
:10041000AE4605006946534620F00700854618B0F1
:1004200020B5FFF7DFFFBDE820404FF000064FF09A
:1004300000074FF000084FF0000B21F00701AC4619
:10044000ACE8C009ACE8C009ACE8C009ACE8C00938
:100450008D46704710B50446AFF300802046BDE8D6
:100460001040FFF73EBF000000487047000000202A
:1004700001491820ABBEFEE72600020070470000CD
:1004800010B506285DD2DFE800F0031527395C4B74
:10049000012A07D12B4B1B6801248C402343294C94
:1004A000236006E0274B1C6801238B409C43254BAF
:1004B0001C6000BF012A07D1234B1C6801238B401D
:1004C0001C43214B1C6006E01F4B1B6801248C4021
:1004D000A3431D4C236000BF012A07D11B4B1B689F
:1004E00001248C402343194C236006E0184B1B6801
:1004F00001248C40A343164C236000BF012A07D17E
:10050000134B1B6801248C402343114C236006E0ED
:100510000F4B1C6801238B409C430D4B1C6000BF9C
:10052000012A07D10B4B1B6801248C402343094C43
:10053000236006E0074B1B6801248C40A343054C55
:10054000236010BD1C8505401C5500401C65004003
:100550001C7500401C55024010B506285DD2DFE82E
:1005600000F0031527395C4B012A07D12B4B1B6880
:1005700001248C402343294C236006E0274B1C6850
:1005800001238B409C43254B1C6000BF012A07D1EF
:10059000234B1C6801238B401C43214B1C6006E04D
:1005A0001F4B1B6801248C40A3431D4C236000BFDC
:1005B000012A07D11B4B1B6801248C402343194C93
:1005C000236006E0184B1B6801248C40A343164CA3
:1005D000236000BF012A07D1134B1B6801248C4004
:1005E0002343114C236006E00F4B1C6801238B4012
:1005F0009C430D4B1C6000BF012A07D10B4B1B68AD
:1006000001248C402343094C236006E0074B1B6800
:1006100001248C40A343054C236010BD0084054099
:100620000054004000640040007400400054024048
:1006300010B506285FD2DFE800F0031527395E4BBE
:10064000012A07D12C4B1B6801248C4023432A4CE0
:10065000236006E0284B1C6801238B409C43264BFB
:100660001C6000BF012A07D1244B1C6801238B406A
:100670001C43224B1C6006E0204B1B6801248C406D
:10068000A3431E4C236000BF012A07D11C4B1B68EB
:1006900001248C4023431A4C236006E0194B1B684D
:1006A00001248C40A343174C236000BF012A07D1CB
:1006B000144B1B6801248C402343124C236006E03A
:1006C000104B1C6801238B409C430E4B1C6000BFE9
:1006D000012A08D10C4B1B6801248C4023430B4C8E
:1006E000C4F8FC3307E0084B1B6801248C40A3438B
:1006F000064CC4F8FC3310BD00800540005000409B
:100700000060004000700040FC5302400050024076
:100710001B49096841F47001194A116019491A4AC4
:1007200011671A4911661A4911661A4911670020A2
:1007300000E0401CB0F57A7FFBD31749124A1166DE
:1007400016491167002000E0401CB0F57A7FFBD30A
:1007500013490D4A116600BF0B49096D01F04001B4
:100760004029F9D10F49084A11664FF0C07111674D
:10077000002000E0401C42F210718842FAD370471A
:1007800088ED00E01028800700E00F40D13A8E0786
:10079000422D9E0100288001420D9E01000880012B
:1007A000420DDE014205DE01002100BF34E00022DF
:1007B0001B4BDA601A6004221A601A46526842F033
:1007C00001025A601A46526842F010025A601A46F4
:1007D000526A42F001025A621A46926A4FF6E85390
:1007E0001A430F4B9A621A46526A42F001025A6249
:1007F0001A46D26842F00102DA6000BF084A127F4E
:1008000002F00102002AF9D0054A526A42F00102C0
:10081000034B5A624A1CD1B28142C8DB70470000C8
:10082000000003401348006840F0200011490860B0
:10083000081F006840F00100091F08600122032121
:100840000520FFF789FE012203210520FFF718FE8E
:100850000FE0002203210520FFF7EAFEA020FFF7AA
:10086000A3FF012203210520FFF7E2FEA020FFF7EE
:100870009BFFEEE708E60F404FF04070E1EE100AF4
:100880007047000094080000000000206002000093
:04089000A8020000BA
:04000005000002F104
:00000001FF
